{
  "_format": "hh-sol-artifact-1",
  "contractName": "CustomBallot",
  "sourceName": "contracts/CustomBallot.sol",
  "abi": [
    {
      "inputs": [
        {
          "internalType": "bytes32[]",
          "name": "proposalNames",
          "type": "bytes32[]"
        },
        {
          "internalType": "address",
          "name": "_voteToken",
          "type": "address"
        }
      ],
      "stateMutability": "nonpayable",
      "type": "constructor"
    },
    {
      "anonymous": false,
      "inputs": [
        {
          "indexed": true,
          "internalType": "address",
          "name": "voter",
          "type": "address"
        },
        {
          "indexed": true,
          "internalType": "uint256",
          "name": "proposal",
          "type": "uint256"
        },
        {
          "indexed": false,
          "internalType": "uint256",
          "name": "weight",
          "type": "uint256"
        },
        {
          "indexed": false,
          "internalType": "uint256",
          "name": "proposalVotes",
          "type": "uint256"
        }
      ],
      "name": "Voted",
      "type": "event"
    },
    {
      "inputs": [],
      "name": "getProposals",
      "outputs": [
        {
          "components": [
            {
              "internalType": "bytes32",
              "name": "name",
              "type": "bytes32"
            },
            {
              "internalType": "uint256",
              "name": "voteCount",
              "type": "uint256"
            }
          ],
          "internalType": "struct CustomBallot.Proposal[]",
          "name": "proposalsArr",
          "type": "tuple[]"
        }
      ],
      "stateMutability": "view",
      "type": "function"
    },
    {
      "inputs": [
        {
          "internalType": "uint256",
          "name": "",
          "type": "uint256"
        }
      ],
      "name": "proposals",
      "outputs": [
        {
          "internalType": "bytes32",
          "name": "name",
          "type": "bytes32"
        },
        {
          "internalType": "uint256",
          "name": "voteCount",
          "type": "uint256"
        }
      ],
      "stateMutability": "view",
      "type": "function"
    },
    {
      "inputs": [],
      "name": "referenceBlock",
      "outputs": [
        {
          "internalType": "uint256",
          "name": "",
          "type": "uint256"
        }
      ],
      "stateMutability": "view",
      "type": "function"
    },
    {
      "inputs": [
        {
          "internalType": "address",
          "name": "",
          "type": "address"
        }
      ],
      "name": "spentVotePower",
      "outputs": [
        {
          "internalType": "uint256",
          "name": "",
          "type": "uint256"
        }
      ],
      "stateMutability": "view",
      "type": "function"
    },
    {
      "inputs": [
        {
          "internalType": "uint256",
          "name": "proposal",
          "type": "uint256"
        },
        {
          "internalType": "uint256",
          "name": "amount",
          "type": "uint256"
        }
      ],
      "name": "vote",
      "outputs": [],
      "stateMutability": "nonpayable",
      "type": "function"
    },
    {
      "inputs": [],
      "name": "voteToken",
      "outputs": [
        {
          "internalType": "contract IERC20Votes",
          "name": "",
          "type": "address"
        }
      ],
      "stateMutability": "view",
      "type": "function"
    },
    {
      "inputs": [],
      "name": "votingPower",
      "outputs": [
        {
          "internalType": "uint256",
          "name": "votingPower",
          "type": "uint256"
        }
      ],
      "stateMutability": "view",
      "type": "function"
    },
    {
      "inputs": [],
      "name": "winnerName",
      "outputs": [
        {
          "internalType": "bytes32",
          "name": "winnerName_",
          "type": "bytes32"
        }
      ],
      "stateMutability": "view",
      "type": "function"
    },
    {
      "inputs": [],
      "name": "winningProposal",
      "outputs": [
        {
          "internalType": "uint256",
          "name": "winningProposal_",
          "type": "uint256"
        }
      ],
      "stateMutability": "view",
      "type": "function"
    }
  ],
  "bytecode": "0x60806040523480156200001157600080fd5b506040516200102d3803806200102d833981810160405281019062000037919062000213565b60005b8251811015620000f257600160405180604001604052808584815181106200008b577f4e487b7100000000000000000000000000000000000000000000000000000000600052603260045260246000fd5b6020026020010151815260200160008152509080600181540180825580915050600190039060005260206000209060020201600090919091909150600082015181600001556020820151816001015550508080620000e99062000343565b9150506200003a565b5080600260006101000a81548173ffffffffffffffffffffffffffffffffffffffff021916908373ffffffffffffffffffffffffffffffffffffffff16021790555043600381905550505062000434565b60006200015a620001548462000296565b6200026d565b905080838252602082019050828560208602820111156200017a57600080fd5b60005b85811015620001ae5781620001938882620001fc565b8452602084019350602083019250506001810190506200017d565b5050509392505050565b600081519050620001c98162000400565b92915050565b600082601f830112620001e157600080fd5b8151620001f384826020860162000143565b91505092915050565b6000815190506200020d816200041a565b92915050565b600080604083850312156200022757600080fd5b600083015167ffffffffffffffff8111156200024257600080fd5b6200025085828601620001cf565b92505060206200026385828601620001b8565b9150509250929050565b6000620002796200028c565b90506200028782826200030d565b919050565b6000604051905090565b600067ffffffffffffffff821115620002b457620002b3620003c0565b5b602082029050602081019050919050565b6000620002d282620002e3565b9050919050565b6000819050919050565b600073ffffffffffffffffffffffffffffffffffffffff82169050919050565b6000819050919050565b6200031882620003ef565b810181811067ffffffffffffffff821117156200033a5762000339620003c0565b5b80604052505050565b6000620003508262000303565b91507fffffffffffffffffffffffffffffffffffffffffffffffffffffffffffffffff82141562000386576200038562000391565b5b600182019050919050565b7f4e487b7100000000000000000000000000000000000000000000000000000000600052601160045260246000fd5b7f4e487b7100000000000000000000000000000000000000000000000000000000600052604160045260246000fd5b6000601f19601f8301169050919050565b6200040b81620002c5565b81146200041757600080fd5b50565b6200042581620002d9565b81146200043157600080fd5b50565b610be980620004446000396000f3fe608060405234801561001057600080fd5b50600436106100935760003560e01c806362564c481161006657806362564c481461013557806377174f8514610153578063b384abef14610171578063d94c8caa1461018d578063e2ba53f0146101ab57610093565b8063013cf08b14610098578063160d66ae146100c957806346a38bc8146100e7578063609ff1bd14610117575b600080fd5b6100b260048036038101906100ad91906106e8565b6101c9565b6040516100c09291906108fe565b60405180910390f35b6100d16101fd565b6040516100de9190610927565b60405180910390f35b61010160048036038101906100fc91906106bf565b610223565b60405161010e9190610962565b60405180910390f35b61011f61023b565b60405161012c9190610962565b60405180910390f35b61013d61030f565b60405161014a91906108c1565b60405180910390f35b61015b610382565b6040516101689190610962565b60405180910390f35b61018b6004803603810190610186919061073a565b610387565b005b610195610620565b6040516101a29190610962565b60405180910390f35b6101b3610626565b6040516101c091906108e3565b60405180910390f35b600181815481106101d957600080fd5b90600052602060002090600202016000915090508060000154908060010154905082565b600260009054906101000a900473ffffffffffffffffffffffffffffffffffffffff1681565b60006020528060005260406000206000915090505481565b6000806000905060005b60018054905081101561030a57816001828154811061028d577f4e487b7100000000000000000000000000000000000000000000000000000000600052603260045260246000fd5b90600052602060002090600202016001015411156102f757600181815481106102df577f4e487b7100000000000000000000000000000000000000000000000000000000600052603260045260246000fd5b90600052602060002090600202016001015491508092505b808061030290610ae4565b915050610245565b505090565b60606001805480602002602001604051908101604052809291908181526020016000905b8282101561037957838290600052602060002090600202016040518060400160405290816000820154815260200160018201548152505081526020019060010190610333565b50505050905090565b600090565b60008060003373ffffffffffffffffffffffffffffffffffffffff1673ffffffffffffffffffffffffffffffffffffffff16815260200190815260200160002054600260009054906101000a900473ffffffffffffffffffffffffffffffffffffffff1673ffffffffffffffffffffffffffffffffffffffff16633a46b1a8336003546040518363ffffffff1660e01b8152600401610427929190610898565b602060405180830381600087803b15801561044157600080fd5b505af1158015610455573d6000803e3d6000fd5b505050506040513d601f19601f820116820180604052508101906104799190610711565b6104839190610a46565b9050818110156104c8576040517f08c379a00000000000000000000000000000000000000000000000000000000081526004016104bf90610942565b60405180910390fd5b816000803373ffffffffffffffffffffffffffffffffffffffff1673ffffffffffffffffffffffffffffffffffffffff168152602001908152602001600020600082825461051691906109f0565b925050819055508160018481548110610558577f4e487b7100000000000000000000000000000000000000000000000000000000600052603260045260246000fd5b9060005260206000209060020201600101600082825461057891906109f0565b92505081905550823373ffffffffffffffffffffffffffffffffffffffff167fc32b42768a47a585121e9b8d7a2ab9d3f34c326a192dee11ee1732e3d18313f384600187815481106105f3577f4e487b7100000000000000000000000000000000000000000000000000000000600052603260045260246000fd5b90600052602060002090600202016001015460405161061392919061097d565b60405180910390a3505050565b60035481565b6000600161063261023b565b81548110610669577f4e487b7100000000000000000000000000000000000000000000000000000000600052603260045260246000fd5b906000526020600020906002020160000154905090565b60008135905061068f81610b85565b92915050565b6000813590506106a481610b9c565b92915050565b6000815190506106b981610b9c565b92915050565b6000602082840312156106d157600080fd5b60006106df84828501610680565b91505092915050565b6000602082840312156106fa57600080fd5b600061070884828501610695565b91505092915050565b60006020828403121561072357600080fd5b6000610731848285016106aa565b91505092915050565b6000806040838503121561074d57600080fd5b600061075b85828601610695565b925050602061076c85828601610695565b9150509250929050565b6000610782838361084b565b60408301905092915050565b61079781610a7a565b82525050565b60006107a8826109b6565b6107b281856109ce565b93506107bd836109a6565b8060005b838110156107ee5781516107d58882610776565b97506107e0836109c1565b9250506001810190506107c1565b5085935050505092915050565b61080481610a8c565b82525050565b61081381610a8c565b82525050565b61082281610ac0565b82525050565b6000610835601b836109df565b915061084082610b5c565b602082019050919050565b60408201600082015161086160008501826107fb565b506020820151610874602085018261087a565b50505050565b61088381610ab6565b82525050565b61089281610ab6565b82525050565b60006040820190506108ad600083018561078e565b6108ba6020830184610889565b9392505050565b600060208201905081810360008301526108db818461079d565b905092915050565b60006020820190506108f8600083018461080a565b92915050565b6000604082019050610913600083018561080a565b6109206020830184610889565b9392505050565b600060208201905061093c6000830184610819565b92915050565b6000602082019050818103600083015261095b81610828565b9050919050565b60006020820190506109776000830184610889565b92915050565b60006040820190506109926000830185610889565b61099f6020830184610889565b9392505050565b6000819050602082019050919050565b600081519050919050565b6000602082019050919050565b600082825260208201905092915050565b600082825260208201905092915050565b60006109fb82610ab6565b9150610a0683610ab6565b9250827fffffffffffffffffffffffffffffffffffffffffffffffffffffffffffffffff03821115610a3b57610a3a610b2d565b5b828201905092915050565b6000610a5182610ab6565b9150610a5c83610ab6565b925082821015610a6f57610a6e610b2d565b5b828203905092915050565b6000610a8582610a96565b9050919050565b6000819050919050565b600073ffffffffffffffffffffffffffffffffffffffff82169050919050565b6000819050919050565b6000610acb82610ad2565b9050919050565b6000610add82610a96565b9050919050565b6000610aef82610ab6565b91507fffffffffffffffffffffffffffffffffffffffffffffffffffffffffffffffff821415610b2257610b21610b2d565b5b600182019050919050565b7f4e487b7100000000000000000000000000000000000000000000000000000000600052601160045260246000fd5b7f486173206e6f7420656e6f75676820766f74696e6720706f7765720000000000600082015250565b610b8e81610a7a565b8114610b9957600080fd5b50565b610ba581610ab6565b8114610bb057600080fd5b5056fea264697066735822122085349d8180e5c80328840aecdf74431c11070120fbefe37689eef80f59b13e8364736f6c63430008040033",
  "linkReferences": {},
  "deployedLinkReferences": {}
}