{
  "_format": "hh-sol-artifact-1",
  "contractName": "CustomBallot",
  "sourceName": "contracts/CustomBallot.sol",
  "abi": [
    {
      "inputs": [
        {
          "internalType": "bytes32",
          "name": "proposalTitle",
          "type": "bytes32"
        },
        {
          "internalType": "bytes32[]",
          "name": "proposalNames",
          "type": "bytes32[]"
        },
        {
          "internalType": "address",
          "name": "_voteToken",
          "type": "address"
        }
      ],
      "stateMutability": "nonpayable",
      "type": "constructor"
    },
    {
      "anonymous": false,
      "inputs": [
        {
          "indexed": true,
          "internalType": "address",
          "name": "voter",
          "type": "address"
        },
        {
          "indexed": true,
          "internalType": "uint256",
          "name": "proposal",
          "type": "uint256"
        },
        {
          "indexed": false,
          "internalType": "uint256",
          "name": "weight",
          "type": "uint256"
        },
        {
          "indexed": false,
          "internalType": "uint256",
          "name": "proposalVotes",
          "type": "uint256"
        }
      ],
      "name": "Voted",
      "type": "event"
    },
    {
      "inputs": [],
      "name": "getProposals",
      "outputs": [
        {
          "components": [
            {
              "internalType": "bytes32",
              "name": "name",
              "type": "bytes32"
            },
            {
              "internalType": "uint256",
              "name": "voteCount",
              "type": "uint256"
            }
          ],
          "internalType": "struct CustomBallot.Proposal[]",
          "name": "proposalsArr",
          "type": "tuple[]"
        }
      ],
      "stateMutability": "view",
      "type": "function"
    },
    {
      "inputs": [
        {
          "internalType": "uint256",
          "name": "",
          "type": "uint256"
        }
      ],
      "name": "proposals",
      "outputs": [
        {
          "internalType": "bytes32",
          "name": "name",
          "type": "bytes32"
        },
        {
          "internalType": "uint256",
          "name": "voteCount",
          "type": "uint256"
        }
      ],
      "stateMutability": "view",
      "type": "function"
    },
    {
      "inputs": [],
      "name": "referenceBlock",
      "outputs": [
        {
          "internalType": "uint256",
          "name": "",
          "type": "uint256"
        }
      ],
      "stateMutability": "view",
      "type": "function"
    },
    {
      "inputs": [
        {
          "internalType": "address",
          "name": "",
          "type": "address"
        }
      ],
      "name": "spentVotePower",
      "outputs": [
        {
          "internalType": "uint256",
          "name": "",
          "type": "uint256"
        }
      ],
      "stateMutability": "view",
      "type": "function"
    },
    {
      "inputs": [],
      "name": "title",
      "outputs": [
        {
          "internalType": "bytes32",
          "name": "",
          "type": "bytes32"
        }
      ],
      "stateMutability": "view",
      "type": "function"
    },
    {
      "inputs": [
        {
          "internalType": "uint256",
          "name": "proposal",
          "type": "uint256"
        },
        {
          "internalType": "uint256",
          "name": "amount",
          "type": "uint256"
        }
      ],
      "name": "vote",
      "outputs": [],
      "stateMutability": "nonpayable",
      "type": "function"
    },
    {
      "inputs": [],
      "name": "voteToken",
      "outputs": [
        {
          "internalType": "contract IERC20Votes",
          "name": "",
          "type": "address"
        }
      ],
      "stateMutability": "view",
      "type": "function"
    },
    {
      "inputs": [],
      "name": "votingPower",
      "outputs": [
        {
          "internalType": "uint256",
          "name": "votingPower",
          "type": "uint256"
        }
      ],
      "stateMutability": "view",
      "type": "function"
    },
    {
      "inputs": [],
      "name": "winnerName",
      "outputs": [
        {
          "internalType": "bytes32",
          "name": "winnerName_",
          "type": "bytes32"
        }
      ],
      "stateMutability": "view",
      "type": "function"
    },
    {
      "inputs": [],
      "name": "winningProposal",
      "outputs": [
        {
          "internalType": "uint256",
          "name": "winningProposal_",
          "type": "uint256"
        }
      ],
      "stateMutability": "view",
      "type": "function"
    }
  ],
  "bytecode": "0x60806040523480156200001157600080fd5b50604051620010793803806200107983398181016040528101906200003791906200021b565b8260018190555060005b8251811015620000f9576002604051806040016040528085848151811062000092577f4e487b7100000000000000000000000000000000000000000000000000000000600052603260045260246000fd5b6020026020010151815260200160008152509080600181540180825580915050600190039060005260206000209060020201600090919091909150600082015181600001556020820151816001015550508080620000f09062000360565b91505062000041565b5080600360006101000a81548173ffffffffffffffffffffffffffffffffffffffff021916908373ffffffffffffffffffffffffffffffffffffffff1602179055504360048190555050505062000451565b6000620001626200015c84620002b3565b6200028a565b905080838252602082019050828560208602820111156200018257600080fd5b60005b85811015620001b657816200019b888262000204565b84526020840193506020830192505060018101905062000185565b5050509392505050565b600081519050620001d1816200041d565b92915050565b600082601f830112620001e957600080fd5b8151620001fb8482602086016200014b565b91505092915050565b600081519050620002158162000437565b92915050565b6000806000606084860312156200023157600080fd5b6000620002418682870162000204565b935050602084015167ffffffffffffffff8111156200025f57600080fd5b6200026d86828701620001d7565b92505060406200028086828701620001c0565b9150509250925092565b600062000296620002a9565b9050620002a482826200032a565b919050565b6000604051905090565b600067ffffffffffffffff821115620002d157620002d0620003dd565b5b602082029050602081019050919050565b6000620002ef8262000300565b9050919050565b6000819050919050565b600073ffffffffffffffffffffffffffffffffffffffff82169050919050565b6000819050919050565b62000335826200040c565b810181811067ffffffffffffffff82111715620003575762000356620003dd565b5b80604052505050565b60006200036d8262000320565b91507fffffffffffffffffffffffffffffffffffffffffffffffffffffffffffffffff821415620003a357620003a2620003ae565b5b600182019050919050565b7f4e487b7100000000000000000000000000000000000000000000000000000000600052601160045260246000fd5b7f4e487b7100000000000000000000000000000000000000000000000000000000600052604160045260246000fd5b6000601f19601f8301169050919050565b6200042881620002e2565b81146200043457600080fd5b50565b6200044281620002f6565b81146200044e57600080fd5b50565b610c1880620004616000396000f3fe608060405234801561001057600080fd5b506004361061009e5760003560e01c806362564c481161006657806362564c481461015e57806377174f851461017c578063b384abef1461019a578063d94c8caa146101b6578063e2ba53f0146101d45761009e565b8063013cf08b146100a3578063160d66ae146100d457806346a38bc8146100f25780634a79d50c14610122578063609ff1bd14610140575b600080fd5b6100bd60048036038101906100b89190610717565b6101f2565b6040516100cb92919061092d565b60405180910390f35b6100dc610226565b6040516100e99190610956565b60405180910390f35b61010c600480360381019061010791906106ee565b61024c565b6040516101199190610991565b60405180910390f35b61012a610264565b6040516101379190610912565b60405180910390f35b61014861026a565b6040516101559190610991565b60405180910390f35b61016661033e565b60405161017391906108f0565b60405180910390f35b6101846103b1565b6040516101919190610991565b60405180910390f35b6101b460048036038101906101af9190610769565b6103b6565b005b6101be61064f565b6040516101cb9190610991565b60405180910390f35b6101dc610655565b6040516101e99190610912565b60405180910390f35b6002818154811061020257600080fd5b90600052602060002090600202016000915090508060000154908060010154905082565b600360009054906101000a900473ffffffffffffffffffffffffffffffffffffffff1681565b60006020528060005260406000206000915090505481565b60015481565b6000806000905060005b6002805490508110156103395781600282815481106102bc577f4e487b7100000000000000000000000000000000000000000000000000000000600052603260045260246000fd5b9060005260206000209060020201600101541115610326576002818154811061030e577f4e487b7100000000000000000000000000000000000000000000000000000000600052603260045260246000fd5b90600052602060002090600202016001015491508092505b808061033190610b13565b915050610274565b505090565b60606002805480602002602001604051908101604052809291908181526020016000905b828210156103a857838290600052602060002090600202016040518060400160405290816000820154815260200160018201548152505081526020019060010190610362565b50505050905090565b600090565b60008060003373ffffffffffffffffffffffffffffffffffffffff1673ffffffffffffffffffffffffffffffffffffffff16815260200190815260200160002054600360009054906101000a900473ffffffffffffffffffffffffffffffffffffffff1673ffffffffffffffffffffffffffffffffffffffff16633a46b1a8336004546040518363ffffffff1660e01b81526004016104569291906108c7565b602060405180830381600087803b15801561047057600080fd5b505af1158015610484573d6000803e3d6000fd5b505050506040513d601f19601f820116820180604052508101906104a89190610740565b6104b29190610a75565b9050818110156104f7576040517f08c379a00000000000000000000000000000000000000000000000000000000081526004016104ee90610971565b60405180910390fd5b816000803373ffffffffffffffffffffffffffffffffffffffff1673ffffffffffffffffffffffffffffffffffffffff16815260200190815260200160002060008282546105459190610a1f565b925050819055508160028481548110610587577f4e487b7100000000000000000000000000000000000000000000000000000000600052603260045260246000fd5b906000526020600020906002020160010160008282546105a79190610a1f565b92505081905550823373ffffffffffffffffffffffffffffffffffffffff167fc32b42768a47a585121e9b8d7a2ab9d3f34c326a192dee11ee1732e3d18313f38460028781548110610622577f4e487b7100000000000000000000000000000000000000000000000000000000600052603260045260246000fd5b9060005260206000209060020201600101546040516106429291906109ac565b60405180910390a3505050565b60045481565b6000600261066161026a565b81548110610698577f4e487b7100000000000000000000000000000000000000000000000000000000600052603260045260246000fd5b906000526020600020906002020160000154905090565b6000813590506106be81610bb4565b92915050565b6000813590506106d381610bcb565b92915050565b6000815190506106e881610bcb565b92915050565b60006020828403121561070057600080fd5b600061070e848285016106af565b91505092915050565b60006020828403121561072957600080fd5b6000610737848285016106c4565b91505092915050565b60006020828403121561075257600080fd5b6000610760848285016106d9565b91505092915050565b6000806040838503121561077c57600080fd5b600061078a858286016106c4565b925050602061079b858286016106c4565b9150509250929050565b60006107b1838361087a565b60408301905092915050565b6107c681610aa9565b82525050565b60006107d7826109e5565b6107e181856109fd565b93506107ec836109d5565b8060005b8381101561081d57815161080488826107a5565b975061080f836109f0565b9250506001810190506107f0565b5085935050505092915050565b61083381610abb565b82525050565b61084281610abb565b82525050565b61085181610aef565b82525050565b6000610864601b83610a0e565b915061086f82610b8b565b602082019050919050565b604082016000820151610890600085018261082a565b5060208201516108a360208501826108a9565b50505050565b6108b281610ae5565b82525050565b6108c181610ae5565b82525050565b60006040820190506108dc60008301856107bd565b6108e960208301846108b8565b9392505050565b6000602082019050818103600083015261090a81846107cc565b905092915050565b60006020820190506109276000830184610839565b92915050565b60006040820190506109426000830185610839565b61094f60208301846108b8565b9392505050565b600060208201905061096b6000830184610848565b92915050565b6000602082019050818103600083015261098a81610857565b9050919050565b60006020820190506109a660008301846108b8565b92915050565b60006040820190506109c160008301856108b8565b6109ce60208301846108b8565b9392505050565b6000819050602082019050919050565b600081519050919050565b6000602082019050919050565b600082825260208201905092915050565b600082825260208201905092915050565b6000610a2a82610ae5565b9150610a3583610ae5565b9250827fffffffffffffffffffffffffffffffffffffffffffffffffffffffffffffffff03821115610a6a57610a69610b5c565b5b828201905092915050565b6000610a8082610ae5565b9150610a8b83610ae5565b925082821015610a9e57610a9d610b5c565b5b828203905092915050565b6000610ab482610ac5565b9050919050565b6000819050919050565b600073ffffffffffffffffffffffffffffffffffffffff82169050919050565b6000819050919050565b6000610afa82610b01565b9050919050565b6000610b0c82610ac5565b9050919050565b6000610b1e82610ae5565b91507fffffffffffffffffffffffffffffffffffffffffffffffffffffffffffffffff821415610b5157610b50610b5c565b5b600182019050919050565b7f4e487b7100000000000000000000000000000000000000000000000000000000600052601160045260246000fd5b7f486173206e6f7420656e6f75676820766f74696e6720706f7765720000000000600082015250565b610bbd81610aa9565b8114610bc857600080fd5b50565b610bd481610ae5565b8114610bdf57600080fd5b5056fea2646970667358221220071f587757e518959591cc58d4bc7e17b8a43ddfbfcf310775992c16675b46fe64736f6c63430008040033",
  "linkReferences": {},
  "deployedLinkReferences": {}
}