{
  "_format": "hh-sol-artifact-1",
  "contractName": "TweeterCoin",
  "sourceName": "contracts/Token.sol",
  "abi": [
    {
      "inputs": [],
      "stateMutability": "nonpayable",
      "type": "constructor"
    },
    {
      "anonymous": false,
      "inputs": [
        {
          "indexed": true,
          "internalType": "address",
          "name": "owner",
          "type": "address"
        },
        {
          "indexed": true,
          "internalType": "address",
          "name": "spender",
          "type": "address"
        },
        {
          "indexed": false,
          "internalType": "uint256",
          "name": "value",
          "type": "uint256"
        }
      ],
      "name": "Approval",
      "type": "event"
    },
    {
      "anonymous": false,
      "inputs": [
        {
          "indexed": true,
          "internalType": "address",
          "name": "delegator",
          "type": "address"
        },
        {
          "indexed": true,
          "internalType": "address",
          "name": "fromDelegate",
          "type": "address"
        },
        {
          "indexed": true,
          "internalType": "address",
          "name": "toDelegate",
          "type": "address"
        }
      ],
      "name": "DelegateChanged",
      "type": "event"
    },
    {
      "anonymous": false,
      "inputs": [
        {
          "indexed": true,
          "internalType": "address",
          "name": "delegate",
          "type": "address"
        },
        {
          "indexed": false,
          "internalType": "uint256",
          "name": "previousBalance",
          "type": "uint256"
        },
        {
          "indexed": false,
          "internalType": "uint256",
          "name": "newBalance",
          "type": "uint256"
        }
      ],
      "name": "DelegateVotesChanged",
      "type": "event"
    },
    {
      "anonymous": false,
      "inputs": [
        {
          "indexed": true,
          "internalType": "bytes32",
          "name": "role",
          "type": "bytes32"
        },
        {
          "indexed": true,
          "internalType": "bytes32",
          "name": "previousAdminRole",
          "type": "bytes32"
        },
        {
          "indexed": true,
          "internalType": "bytes32",
          "name": "newAdminRole",
          "type": "bytes32"
        }
      ],
      "name": "RoleAdminChanged",
      "type": "event"
    },
    {
      "anonymous": false,
      "inputs": [
        {
          "indexed": true,
          "internalType": "bytes32",
          "name": "role",
          "type": "bytes32"
        },
        {
          "indexed": true,
          "internalType": "address",
          "name": "account",
          "type": "address"
        },
        {
          "indexed": true,
          "internalType": "address",
          "name": "sender",
          "type": "address"
        }
      ],
      "name": "RoleGranted",
      "type": "event"
    },
    {
      "anonymous": false,
      "inputs": [
        {
          "indexed": true,
          "internalType": "bytes32",
          "name": "role",
          "type": "bytes32"
        },
        {
          "indexed": true,
          "internalType": "address",
          "name": "account",
          "type": "address"
        },
        {
          "indexed": true,
          "internalType": "address",
          "name": "sender",
          "type": "address"
        }
      ],
      "name": "RoleRevoked",
      "type": "event"
    },
    {
      "anonymous": false,
      "inputs": [
        {
          "indexed": true,
          "internalType": "address",
          "name": "from",
          "type": "address"
        },
        {
          "indexed": true,
          "internalType": "address",
          "name": "to",
          "type": "address"
        },
        {
          "indexed": false,
          "internalType": "uint256",
          "name": "value",
          "type": "uint256"
        }
      ],
      "name": "Transfer",
      "type": "event"
    },
    {
      "inputs": [],
      "name": "DEFAULT_ADMIN_ROLE",
      "outputs": [
        {
          "internalType": "bytes32",
          "name": "",
          "type": "bytes32"
        }
      ],
      "stateMutability": "view",
      "type": "function"
    },
    {
      "inputs": [],
      "name": "DOMAIN_SEPARATOR",
      "outputs": [
        {
          "internalType": "bytes32",
          "name": "",
          "type": "bytes32"
        }
      ],
      "stateMutability": "view",
      "type": "function"
    },
    {
      "inputs": [],
      "name": "MINTER_ROLE",
      "outputs": [
        {
          "internalType": "bytes32",
          "name": "",
          "type": "bytes32"
        }
      ],
      "stateMutability": "view",
      "type": "function"
    },
    {
      "inputs": [
        {
          "internalType": "address",
          "name": "owner",
          "type": "address"
        },
        {
          "internalType": "address",
          "name": "spender",
          "type": "address"
        }
      ],
      "name": "allowance",
      "outputs": [
        {
          "internalType": "uint256",
          "name": "",
          "type": "uint256"
        }
      ],
      "stateMutability": "view",
      "type": "function"
    },
    {
      "inputs": [
        {
          "internalType": "address",
          "name": "spender",
          "type": "address"
        },
        {
          "internalType": "uint256",
          "name": "amount",
          "type": "uint256"
        }
      ],
      "name": "approve",
      "outputs": [
        {
          "internalType": "bool",
          "name": "",
          "type": "bool"
        }
      ],
      "stateMutability": "nonpayable",
      "type": "function"
    },
    {
      "inputs": [
        {
          "internalType": "address",
          "name": "account",
          "type": "address"
        }
      ],
      "name": "balanceOf",
      "outputs": [
        {
          "internalType": "uint256",
          "name": "",
          "type": "uint256"
        }
      ],
      "stateMutability": "view",
      "type": "function"
    },
    {
      "inputs": [
        {
          "internalType": "address",
          "name": "account",
          "type": "address"
        },
        {
          "internalType": "uint32",
          "name": "pos",
          "type": "uint32"
        }
      ],
      "name": "checkpoints",
      "outputs": [
        {
          "components": [
            {
              "internalType": "uint32",
              "name": "fromBlock",
              "type": "uint32"
            },
            {
              "internalType": "uint224",
              "name": "votes",
              "type": "uint224"
            }
          ],
          "internalType": "struct ERC20Votes.Checkpoint",
          "name": "",
          "type": "tuple"
        }
      ],
      "stateMutability": "view",
      "type": "function"
    },
    {
      "inputs": [],
      "name": "decimals",
      "outputs": [
        {
          "internalType": "uint8",
          "name": "",
          "type": "uint8"
        }
      ],
      "stateMutability": "view",
      "type": "function"
    },
    {
      "inputs": [
        {
          "internalType": "address",
          "name": "spender",
          "type": "address"
        },
        {
          "internalType": "uint256",
          "name": "subtractedValue",
          "type": "uint256"
        }
      ],
      "name": "decreaseAllowance",
      "outputs": [
        {
          "internalType": "bool",
          "name": "",
          "type": "bool"
        }
      ],
      "stateMutability": "nonpayable",
      "type": "function"
    },
    {
      "inputs": [
        {
          "internalType": "address",
          "name": "delegatee",
          "type": "address"
        }
      ],
      "name": "delegate",
      "outputs": [],
      "stateMutability": "nonpayable",
      "type": "function"
    },
    {
      "inputs": [
        {
          "internalType": "address",
          "name": "delegatee",
          "type": "address"
        },
        {
          "internalType": "uint256",
          "name": "nonce",
          "type": "uint256"
        },
        {
          "internalType": "uint256",
          "name": "expiry",
          "type": "uint256"
        },
        {
          "internalType": "uint8",
          "name": "v",
          "type": "uint8"
        },
        {
          "internalType": "bytes32",
          "name": "r",
          "type": "bytes32"
        },
        {
          "internalType": "bytes32",
          "name": "s",
          "type": "bytes32"
        }
      ],
      "name": "delegateBySig",
      "outputs": [],
      "stateMutability": "nonpayable",
      "type": "function"
    },
    {
      "inputs": [
        {
          "internalType": "address",
          "name": "account",
          "type": "address"
        }
      ],
      "name": "delegates",
      "outputs": [
        {
          "internalType": "address",
          "name": "",
          "type": "address"
        }
      ],
      "stateMutability": "view",
      "type": "function"
    },
    {
      "inputs": [
        {
          "internalType": "uint256",
          "name": "blockNumber",
          "type": "uint256"
        }
      ],
      "name": "getPastTotalSupply",
      "outputs": [
        {
          "internalType": "uint256",
          "name": "",
          "type": "uint256"
        }
      ],
      "stateMutability": "view",
      "type": "function"
    },
    {
      "inputs": [
        {
          "internalType": "address",
          "name": "account",
          "type": "address"
        },
        {
          "internalType": "uint256",
          "name": "blockNumber",
          "type": "uint256"
        }
      ],
      "name": "getPastVotes",
      "outputs": [
        {
          "internalType": "uint256",
          "name": "",
          "type": "uint256"
        }
      ],
      "stateMutability": "view",
      "type": "function"
    },
    {
      "inputs": [
        {
          "internalType": "bytes32",
          "name": "role",
          "type": "bytes32"
        }
      ],
      "name": "getRoleAdmin",
      "outputs": [
        {
          "internalType": "bytes32",
          "name": "",
          "type": "bytes32"
        }
      ],
      "stateMutability": "view",
      "type": "function"
    },
    {
      "inputs": [
        {
          "internalType": "address",
          "name": "account",
          "type": "address"
        }
      ],
      "name": "getVotes",
      "outputs": [
        {
          "internalType": "uint256",
          "name": "",
          "type": "uint256"
        }
      ],
      "stateMutability": "view",
      "type": "function"
    },
    {
      "inputs": [
        {
          "internalType": "bytes32",
          "name": "role",
          "type": "bytes32"
        },
        {
          "internalType": "address",
          "name": "account",
          "type": "address"
        }
      ],
      "name": "grantRole",
      "outputs": [],
      "stateMutability": "nonpayable",
      "type": "function"
    },
    {
      "inputs": [
        {
          "internalType": "bytes32",
          "name": "role",
          "type": "bytes32"
        },
        {
          "internalType": "address",
          "name": "account",
          "type": "address"
        }
      ],
      "name": "hasRole",
      "outputs": [
        {
          "internalType": "bool",
          "name": "",
          "type": "bool"
        }
      ],
      "stateMutability": "view",
      "type": "function"
    },
    {
      "inputs": [
        {
          "internalType": "address",
          "name": "spender",
          "type": "address"
        },
        {
          "internalType": "uint256",
          "name": "addedValue",
          "type": "uint256"
        }
      ],
      "name": "increaseAllowance",
      "outputs": [
        {
          "internalType": "bool",
          "name": "",
          "type": "bool"
        }
      ],
      "stateMutability": "nonpayable",
      "type": "function"
    },
    {
      "inputs": [
        {
          "internalType": "address",
          "name": "to",
          "type": "address"
        },
        {
          "internalType": "uint256",
          "name": "amount",
          "type": "uint256"
        }
      ],
      "name": "mint",
      "outputs": [],
      "stateMutability": "nonpayable",
      "type": "function"
    },
    {
      "inputs": [],
      "name": "name",
      "outputs": [
        {
          "internalType": "string",
          "name": "",
          "type": "string"
        }
      ],
      "stateMutability": "view",
      "type": "function"
    },
    {
      "inputs": [
        {
          "internalType": "address",
          "name": "owner",
          "type": "address"
        }
      ],
      "name": "nonces",
      "outputs": [
        {
          "internalType": "uint256",
          "name": "",
          "type": "uint256"
        }
      ],
      "stateMutability": "view",
      "type": "function"
    },
    {
      "inputs": [
        {
          "internalType": "address",
          "name": "account",
          "type": "address"
        }
      ],
      "name": "numCheckpoints",
      "outputs": [
        {
          "internalType": "uint32",
          "name": "",
          "type": "uint32"
        }
      ],
      "stateMutability": "view",
      "type": "function"
    },
    {
      "inputs": [
        {
          "internalType": "address",
          "name": "owner",
          "type": "address"
        },
        {
          "internalType": "address",
          "name": "spender",
          "type": "address"
        },
        {
          "internalType": "uint256",
          "name": "value",
          "type": "uint256"
        },
        {
          "internalType": "uint256",
          "name": "deadline",
          "type": "uint256"
        },
        {
          "internalType": "uint8",
          "name": "v",
          "type": "uint8"
        },
        {
          "internalType": "bytes32",
          "name": "r",
          "type": "bytes32"
        },
        {
          "internalType": "bytes32",
          "name": "s",
          "type": "bytes32"
        }
      ],
      "name": "permit",
      "outputs": [],
      "stateMutability": "nonpayable",
      "type": "function"
    },
    {
      "inputs": [
        {
          "internalType": "bytes32",
          "name": "role",
          "type": "bytes32"
        },
        {
          "internalType": "address",
          "name": "account",
          "type": "address"
        }
      ],
      "name": "renounceRole",
      "outputs": [],
      "stateMutability": "nonpayable",
      "type": "function"
    },
    {
      "inputs": [
        {
          "internalType": "bytes32",
          "name": "role",
          "type": "bytes32"
        },
        {
          "internalType": "address",
          "name": "account",
          "type": "address"
        }
      ],
      "name": "revokeRole",
      "outputs": [],
      "stateMutability": "nonpayable",
      "type": "function"
    },
    {
      "inputs": [
        {
          "internalType": "bytes4",
          "name": "interfaceId",
          "type": "bytes4"
        }
      ],
      "name": "supportsInterface",
      "outputs": [
        {
          "internalType": "bool",
          "name": "",
          "type": "bool"
        }
      ],
      "stateMutability": "view",
      "type": "function"
    },
    {
      "inputs": [],
      "name": "symbol",
      "outputs": [
        {
          "internalType": "string",
          "name": "",
          "type": "string"
        }
      ],
      "stateMutability": "view",
      "type": "function"
    },
    {
      "inputs": [],
      "name": "totalSupply",
      "outputs": [
        {
          "internalType": "uint256",
          "name": "",
          "type": "uint256"
        }
      ],
      "stateMutability": "view",
      "type": "function"
    },
    {
      "inputs": [
        {
          "internalType": "address",
          "name": "to",
          "type": "address"
        },
        {
          "internalType": "uint256",
          "name": "amount",
          "type": "uint256"
        }
      ],
      "name": "transfer",
      "outputs": [
        {
          "internalType": "bool",
          "name": "",
          "type": "bool"
        }
      ],
      "stateMutability": "nonpayable",
      "type": "function"
    },
    {
      "inputs": [
        {
          "internalType": "address",
          "name": "from",
          "type": "address"
        },
        {
          "internalType": "address",
          "name": "to",
          "type": "address"
        },
        {
          "internalType": "uint256",
          "name": "amount",
          "type": "uint256"
        }
      ],
      "name": "transferFrom",
      "outputs": [
        {
          "internalType": "bool",
          "name": "",
          "type": "bool"
        }
      ],
      "stateMutability": "nonpayable",
      "type": "function"
    }
  ],
  "bytecode": "0x6101606040527f6e71edae12b1b97f4d1f60370fef10105fa2faae0126114a169c64845d6126c9610140908152503480156200003a57600080fd5b506040518060400160405280600b81526020017f54776565746572436f696e000000000000000000000000000000000000000000815250806040518060400160405280600181526020017f31000000000000000000000000000000000000000000000000000000000000008152506040518060400160405280600b81526020017f54776565746572436f696e0000000000000000000000000000000000000000008152506040518060400160405280600481526020017f545754520000000000000000000000000000000000000000000000000000000081525081600390805190602001906200012c929190620003ec565b50806004908051906020019062000145929190620003ec565b50505060008280519060200120905060008280519060200120905060007f8b73c3c69bb8fe3d512ecc4cf759cc79239f7b179b0ffacaa9a75d522b39400f90508260e081815250508161010081815250504660a08181525050620001b18184846200024b60201b60201c565b608081815250503073ffffffffffffffffffffffffffffffffffffffff1660c08173ffffffffffffffffffffffffffffffffffffffff1660601b81525050806101208181525050505050505050620002136000801b336200028760201b60201c565b620002457f9f2df0fed2c77648de5860a4cc508cd0818c85b8b8a1ab4ceeef8d981c8956a6336200028760201b60201c565b620005d9565b6000838383463060405160200162000268959493929190620004cf565b6040516020818303038152906040528051906020012090509392505050565b6200029982826200037960201b60201c565b620003755760016005600084815260200190815260200160002060000160008373ffffffffffffffffffffffffffffffffffffffff1673ffffffffffffffffffffffffffffffffffffffff16815260200190815260200160002060006101000a81548160ff0219169083151502179055506200031a620003e460201b60201c565b73ffffffffffffffffffffffffffffffffffffffff168173ffffffffffffffffffffffffffffffffffffffff16837f2f8788117e7eff1d82e926ec794901d17c78024a50270940304540a733656f0d60405160405180910390a45b5050565b60006005600084815260200190815260200160002060000160008373ffffffffffffffffffffffffffffffffffffffff1673ffffffffffffffffffffffffffffffffffffffff16815260200190815260200160002060009054906101000a900460ff16905092915050565b600033905090565b828054620003fa9062000574565b90600052602060002090601f0160209004810192826200041e57600085556200046a565b82601f106200043957805160ff19168380011785556200046a565b828001600101855582156200046a579182015b82811115620004695782518255916020019190600101906200044c565b5b5090506200047991906200047d565b5090565b5b80821115620004985760008160009055506001016200047e565b5090565b620004a7816200052c565b82525050565b620004b88162000540565b82525050565b620004c9816200056a565b82525050565b600060a082019050620004e66000830188620004ad565b620004f56020830187620004ad565b620005046040830186620004ad565b620005136060830185620004be565b6200052260808301846200049c565b9695505050505050565b600062000539826200054a565b9050919050565b6000819050919050565b600073ffffffffffffffffffffffffffffffffffffffff82169050919050565b6000819050919050565b600060028204905060018216806200058d57607f821691505b60208210811415620005a457620005a3620005aa565b5b50919050565b7f4e487b7100000000000000000000000000000000000000000000000000000000600052602260045260246000fd5b60805160a05160c05160601c60e05161010051610120516101405161477a6200063760003960006110cd01526000611b4801526000611b8a01526000611b6901526000611a9e01526000611af401526000611b1d015261477a6000f3fe608060405234801561001057600080fd5b50600436106101e55760003560e01c80636fcfff451161010f578063a457c2d7116100a2578063d539139311610071578063d539139314610616578063d547741f14610634578063dd62ed3e14610650578063f1127ed814610680576101e5565b8063a457c2d71461057e578063a9059cbb146105ae578063c3cda520146105de578063d505accf146105fa576101e5565b806391d14854116100de57806391d14854146104e257806395d89b41146105125780639ab24eb014610530578063a217fddf14610560576101e5565b80636fcfff451461042257806370a08231146104525780637ecebe00146104825780638e539e8c146104b2576101e5565b8063313ce567116101875780633a46b1a8116101565780633a46b1a81461038a57806340c10f19146103ba578063587cde1e146103d65780635c19a95c14610406576101e5565b8063313ce567146103025780633644e5151461032057806336568abe1461033e578063395093511461035a576101e5565b806318160ddd116101c357806318160ddd1461026857806323b872dd14610286578063248a9ca3146102b65780632f2ff15d146102e6576101e5565b806301ffc9a7146101ea57806306fdde031461021a578063095ea7b314610238575b600080fd5b61020460048036038101906101ff919061335f565b6106b0565b60405161021191906138d0565b60405180910390f35b61022261072a565b60405161022f9190613a44565b60405180910390f35b610252600480360381019061024d91906131f9565b6107bc565b60405161025f91906138d0565b60405180910390f35b6102706107df565b60405161027d9190613d41565b60405180910390f35b6102a0600480360381019061029b919061310c565b6107e9565b6040516102ad91906138d0565b60405180910390f35b6102d060048036038101906102cb91906132fa565b610818565b6040516102dd91906138eb565b60405180910390f35b61030060048036038101906102fb9190613323565b610838565b005b61030a610861565b6040516103179190613da0565b60405180910390f35b61032861086a565b60405161033591906138eb565b60405180910390f35b61035860048036038101906103539190613323565b610879565b005b610374600480360381019061036f91906131f9565b6108fc565b60405161038191906138d0565b60405180910390f35b6103a4600480360381019061039f91906131f9565b6109a6565b6040516103b19190613d41565b60405180910390f35b6103d460048036038101906103cf91906131f9565b610a3a565b005b6103f060048036038101906103eb91906130a7565b610a7b565b6040516103fd91906138b5565b60405180910390f35b610420600480360381019061041b91906130a7565b610ae4565b005b61043c600480360381019061043791906130a7565b610af8565b6040516104499190613d85565b60405180910390f35b61046c600480360381019061046791906130a7565b610b4c565b6040516104799190613d41565b60405180910390f35b61049c600480360381019061049791906130a7565b610b94565b6040516104a99190613d41565b60405180910390f35b6104cc60048036038101906104c79190613388565b610be4565b6040516104d99190613d41565b60405180910390f35b6104fc60048036038101906104f79190613323565b610c3a565b60405161050991906138d0565b60405180910390f35b61051a610ca5565b6040516105279190613a44565b60405180910390f35b61054a600480360381019061054591906130a7565b610d37565b6040516105579190613d41565b60405180910390f35b610568610e6e565b60405161057591906138eb565b60405180910390f35b610598600480360381019061059391906131f9565b610e75565b6040516105a591906138d0565b60405180910390f35b6105c860048036038101906105c391906131f9565b610f5f565b6040516105d591906138d0565b60405180910390f35b6105f860048036038101906105f39190613235565b610f82565b005b610614600480360381019061060f919061315b565b611086565b005b61061e6111c8565b60405161062b91906138eb565b60405180910390f35b61064e60048036038101906106499190613323565b6111ec565b005b61066a600480360381019061066591906130d0565b611215565b6040516106779190613d41565b60405180910390f35b61069a600480360381019061069591906132be565b61129c565b6040516106a79190613d26565b60405180910390f35b60007f7965db0b000000000000000000000000000000000000000000000000000000007bffffffffffffffffffffffffffffffffffffffffffffffffffffffff1916827bffffffffffffffffffffffffffffffffffffffffffffffffffffffff191614806107235750610722826113d2565b5b9050919050565b60606003805461073990614017565b80601f016020809104026020016040519081016040528092919081815260200182805461076590614017565b80156107b25780601f10610787576101008083540402835291602001916107b2565b820191906000526020600020905b81548152906001019060200180831161079557829003601f168201915b5050505050905090565b6000806107c761143c565b90506107d4818585611444565b600191505092915050565b6000600254905090565b6000806107f461143c565b905061080185828561160f565b61080c85858561169b565b60019150509392505050565b600060056000838152602001908152602001600020600101549050919050565b61084182610818565b6108528161084d61143c565b61191c565b61085c83836119b9565b505050565b60006012905090565b6000610874611a9a565b905090565b61088161143c565b73ffffffffffffffffffffffffffffffffffffffff168173ffffffffffffffffffffffffffffffffffffffff16146108ee576040517f08c379a00000000000000000000000000000000000000000000000000000000081526004016108e590613ce6565b60405180910390fd5b6108f88282611bb4565b5050565b60008061090761143c565b905061099b818585600160008673ffffffffffffffffffffffffffffffffffffffff1673ffffffffffffffffffffffffffffffffffffffff16815260200190815260200160002060008973ffffffffffffffffffffffffffffffffffffffff1673ffffffffffffffffffffffffffffffffffffffff168152602001908152602001600020546109969190613de2565b611444565b600191505092915050565b60004382106109ea576040517f08c379a00000000000000000000000000000000000000000000000000000000081526004016109e190613ac6565b60405180910390fd5b610a32600860008573ffffffffffffffffffffffffffffffffffffffff1673ffffffffffffffffffffffffffffffffffffffff16815260200190815260200160002083611c96565b905092915050565b7f9f2df0fed2c77648de5860a4cc508cd0818c85b8b8a1ab4ceeef8d981c8956a6610a6c81610a6761143c565b61191c565b610a768383611dee565b505050565b6000600760008373ffffffffffffffffffffffffffffffffffffffff1673ffffffffffffffffffffffffffffffffffffffff16815260200190815260200160002060009054906101000a900473ffffffffffffffffffffffffffffffffffffffff169050919050565b610af5610aef61143c565b82611dfc565b50565b6000610b45600860008473ffffffffffffffffffffffffffffffffffffffff1673ffffffffffffffffffffffffffffffffffffffff16815260200190815260200160002080549050611f16565b9050919050565b60008060008373ffffffffffffffffffffffffffffffffffffffff1673ffffffffffffffffffffffffffffffffffffffff168152602001908152602001600020549050919050565b6000610bdd600660008473ffffffffffffffffffffffffffffffffffffffff1673ffffffffffffffffffffffffffffffffffffffff168152602001908152602001600020611f69565b9050919050565b6000438210610c28576040517f08c379a0000000000000000000000000000000000000000000000000000000008152600401610c1f90613ac6565b60405180910390fd5b610c33600983611c96565b9050919050565b60006005600084815260200190815260200160002060000160008373ffffffffffffffffffffffffffffffffffffffff1673ffffffffffffffffffffffffffffffffffffffff16815260200190815260200160002060009054906101000a900460ff16905092915050565b606060048054610cb490614017565b80601f0160208091040260200160405190810160405280929190818152602001828054610ce090614017565b8015610d2d5780601f10610d0257610100808354040283529160200191610d2d565b820191906000526020600020905b815481529060010190602001808311610d1057829003601f168201915b5050505050905090565b600080600860008473ffffffffffffffffffffffffffffffffffffffff1673ffffffffffffffffffffffffffffffffffffffff16815260200190815260200160002080549050905060008114610e4557600860008473ffffffffffffffffffffffffffffffffffffffff1673ffffffffffffffffffffffffffffffffffffffff168152602001908152602001600020600182610dd39190613ec3565b81548110610e0a577f4e487b7100000000000000000000000000000000000000000000000000000000600052603260045260246000fd5b9060005260206000200160000160049054906101000a90047bffffffffffffffffffffffffffffffffffffffffffffffffffffffff16610e48565b60005b7bffffffffffffffffffffffffffffffffffffffffffffffffffffffff16915050919050565b6000801b81565b600080610e8061143c565b90506000600160008373ffffffffffffffffffffffffffffffffffffffff1673ffffffffffffffffffffffffffffffffffffffff16815260200190815260200160002060008673ffffffffffffffffffffffffffffffffffffffff1673ffffffffffffffffffffffffffffffffffffffff16815260200190815260200160002054905083811015610f46576040517f08c379a0000000000000000000000000000000000000000000000000000000008152600401610f3d90613cc6565b60405180910390fd5b610f538286868403611444565b60019250505092915050565b600080610f6a61143c565b9050610f7781858561169b565b600191505092915050565b83421115610fc5576040517f08c379a0000000000000000000000000000000000000000000000000000000008152600401610fbc90613ae6565b60405180910390fd5b600061102761101f7fe48329057bfd03d55e49b547132e39cffd9c1820ad7b9d4c5307691425d15adf8989896040516020016110049493929190613967565b60405160208183030381529060405280519060200120611f77565b858585611f91565b905061103281611fbc565b8614611073576040517f08c379a000000000000000000000000000000000000000000000000000000000815260040161106a90613b26565b60405180910390fd5b61107d8188611dfc565b50505050505050565b834211156110c9576040517f08c379a00000000000000000000000000000000000000000000000000000000081526004016110c090613b86565b60405180910390fd5b60007f00000000000000000000000000000000000000000000000000000000000000008888886110f88c611fbc565b8960405160200161110e96959493929190613906565b604051602081830303815290604052805190602001209050600061113182611f77565b9050600061114182878787611f91565b90508973ffffffffffffffffffffffffffffffffffffffff168173ffffffffffffffffffffffffffffffffffffffff16146111b1576040517f08c379a00000000000000000000000000000000000000000000000000000000081526004016111a890613c06565b60405180910390fd5b6111bc8a8a8a611444565b50505050505050505050565b7f9f2df0fed2c77648de5860a4cc508cd0818c85b8b8a1ab4ceeef8d981c8956a681565b6111f582610818565b6112068161120161143c565b61191c565b6112108383611bb4565b505050565b6000600160008473ffffffffffffffffffffffffffffffffffffffff1673ffffffffffffffffffffffffffffffffffffffff16815260200190815260200160002060008373ffffffffffffffffffffffffffffffffffffffff1673ffffffffffffffffffffffffffffffffffffffff16815260200190815260200160002054905092915050565b6112a4612feb565b600860008473ffffffffffffffffffffffffffffffffffffffff1673ffffffffffffffffffffffffffffffffffffffff1681526020019081526020016000208263ffffffff1681548110611321577f4e487b7100000000000000000000000000000000000000000000000000000000600052603260045260246000fd5b906000526020600020016040518060400160405290816000820160009054906101000a900463ffffffff1663ffffffff1663ffffffff1681526020016000820160049054906101000a90047bffffffffffffffffffffffffffffffffffffffffffffffffffffffff167bffffffffffffffffffffffffffffffffffffffffffffffffffffffff167bffffffffffffffffffffffffffffffffffffffffffffffffffffffff1681525050905092915050565b60007f01ffc9a7000000000000000000000000000000000000000000000000000000007bffffffffffffffffffffffffffffffffffffffffffffffffffffffff1916827bffffffffffffffffffffffffffffffffffffffffffffffffffffffff1916149050919050565b600033905090565b600073ffffffffffffffffffffffffffffffffffffffff168373ffffffffffffffffffffffffffffffffffffffff1614156114b4576040517f08c379a00000000000000000000000000000000000000000000000000000000081526004016114ab90613ca6565b60405180910390fd5b600073ffffffffffffffffffffffffffffffffffffffff168273ffffffffffffffffffffffffffffffffffffffff161415611524576040517f08c379a000000000000000000000000000000000000000000000000000000000815260040161151b90613b46565b60405180910390fd5b80600160008573ffffffffffffffffffffffffffffffffffffffff1673ffffffffffffffffffffffffffffffffffffffff16815260200190815260200160002060008473ffffffffffffffffffffffffffffffffffffffff1673ffffffffffffffffffffffffffffffffffffffff168152602001908152602001600020819055508173ffffffffffffffffffffffffffffffffffffffff168373ffffffffffffffffffffffffffffffffffffffff167f8c5be1e5ebec7d5bd14f71427d1e84f3dd0314c0f7b2291e5b200ac8c7c3b925836040516116029190613d41565b60405180910390a3505050565b600061161b8484611215565b90507fffffffffffffffffffffffffffffffffffffffffffffffffffffffffffffffff81146116955781811015611687576040517f08c379a000000000000000000000000000000000000000000000000000000000815260040161167e90613b66565b60405180910390fd5b6116948484848403611444565b5b50505050565b600073ffffffffffffffffffffffffffffffffffffffff168373ffffffffffffffffffffffffffffffffffffffff16141561170b576040517f08c379a000000000000000000000000000000000000000000000000000000000815260040161170290613c66565b60405180910390fd5b600073ffffffffffffffffffffffffffffffffffffffff168273ffffffffffffffffffffffffffffffffffffffff16141561177b576040517f08c379a000000000000000000000000000000000000000000000000000000000815260040161177290613aa6565b60405180910390fd5b61178683838361201a565b60008060008573ffffffffffffffffffffffffffffffffffffffff1673ffffffffffffffffffffffffffffffffffffffff1681526020019081526020016000205490508181101561180c576040517f08c379a000000000000000000000000000000000000000000000000000000000815260040161180390613ba6565b60405180910390fd5b8181036000808673ffffffffffffffffffffffffffffffffffffffff1673ffffffffffffffffffffffffffffffffffffffff16815260200190815260200160002081905550816000808573ffffffffffffffffffffffffffffffffffffffff1673ffffffffffffffffffffffffffffffffffffffff168152602001908152602001600020600082825461189f9190613de2565b925050819055508273ffffffffffffffffffffffffffffffffffffffff168473ffffffffffffffffffffffffffffffffffffffff167fddf252ad1be2c89b69c2b068fc378daa952ba7f163c4a11628f55a4df523b3ef846040516119039190613d41565b60405180910390a361191684848461201f565b50505050565b6119268282610c3a565b6119b55761194b8173ffffffffffffffffffffffffffffffffffffffff16601461202f565b6119598360001c602061202f565b60405160200161196a92919061387b565b6040516020818303038152906040526040517f08c379a00000000000000000000000000000000000000000000000000000000081526004016119ac9190613a44565b60405180910390fd5b5050565b6119c38282610c3a565b611a965760016005600084815260200190815260200160002060000160008373ffffffffffffffffffffffffffffffffffffffff1673ffffffffffffffffffffffffffffffffffffffff16815260200190815260200160002060006101000a81548160ff021916908315150217905550611a3b61143c565b73ffffffffffffffffffffffffffffffffffffffff168173ffffffffffffffffffffffffffffffffffffffff16837f2f8788117e7eff1d82e926ec794901d17c78024a50270940304540a733656f0d60405160405180910390a45b5050565b60007f000000000000000000000000000000000000000000000000000000000000000073ffffffffffffffffffffffffffffffffffffffff163073ffffffffffffffffffffffffffffffffffffffff16148015611b1657507f000000000000000000000000000000000000000000000000000000000000000046145b15611b43577f00000000000000000000000000000000000000000000000000000000000000009050611bb1565b611bae7f00000000000000000000000000000000000000000000000000000000000000007f00000000000000000000000000000000000000000000000000000000000000007f0000000000000000000000000000000000000000000000000000000000000000612329565b90505b90565b611bbe8282610c3a565b15611c925760006005600084815260200190815260200160002060000160008373ffffffffffffffffffffffffffffffffffffffff1673ffffffffffffffffffffffffffffffffffffffff16815260200190815260200160002060006101000a81548160ff021916908315150217905550611c3761143c565b73ffffffffffffffffffffffffffffffffffffffff168173ffffffffffffffffffffffffffffffffffffffff16837ff6391f5c32d9c69d2a47ea670b442974b53935d1edc7fd64eb21e047a839171b60405160405180910390a45b5050565b6000808380549050905060005b81811015611d3b576000611cb78284612363565b905084868281548110611cf3577f4e487b7100000000000000000000000000000000000000000000000000000000600052603260045260246000fd5b9060005260206000200160000160009054906101000a900463ffffffff1663ffffffff161115611d2557809250611d35565b600181611d329190613de2565b91505b50611ca3565b60008214611dc35784600183611d519190613ec3565b81548110611d88577f4e487b7100000000000000000000000000000000000000000000000000000000600052603260045260246000fd5b9060005260206000200160000160049054906101000a90047bffffffffffffffffffffffffffffffffffffffffffffffffffffffff16611dc6565b60005b7bffffffffffffffffffffffffffffffffffffffffffffffffffffffff169250505092915050565b611df88282612389565b5050565b6000611e0783610a7b565b90506000611e1484610b4c565b905082600760008673ffffffffffffffffffffffffffffffffffffffff1673ffffffffffffffffffffffffffffffffffffffff16815260200190815260200160002060006101000a81548173ffffffffffffffffffffffffffffffffffffffff021916908373ffffffffffffffffffffffffffffffffffffffff1602179055508273ffffffffffffffffffffffffffffffffffffffff168273ffffffffffffffffffffffffffffffffffffffff168573ffffffffffffffffffffffffffffffffffffffff167f3134e8a2e6d97e929a7e54011ea5485d7d196dd5f0ba4d4ef95803e8e3fc257f60405160405180910390a4611f10828483612416565b50505050565b600063ffffffff8016821115611f61576040517f08c379a0000000000000000000000000000000000000000000000000000000008152600401611f5890613c86565b60405180910390fd5b819050919050565b600081600001549050919050565b6000611f8a611f84611a9a565b8361260f565b9050919050565b6000806000611fa287878787612642565b91509150611faf8161274f565b8192505050949350505050565b600080600660008473ffffffffffffffffffffffffffffffffffffffff1673ffffffffffffffffffffffffffffffffffffffff168152602001908152602001600020905061200981611f69565b915061201481612aa0565b50919050565b505050565b61202a838383612ab6565b505050565b6060600060028360026120429190613e69565b61204c9190613de2565b67ffffffffffffffff81111561208b577f4e487b7100000000000000000000000000000000000000000000000000000000600052604160045260246000fd5b6040519080825280601f01601f1916602001820160405280156120bd5781602001600182028036833780820191505090505b5090507f30000000000000000000000000000000000000000000000000000000000000008160008151811061211b577f4e487b7100000000000000000000000000000000000000000000000000000000600052603260045260246000fd5b60200101907effffffffffffffffffffffffffffffffffffffffffffffffffffffffffffff1916908160001a9053507f7800000000000000000000000000000000000000000000000000000000000000816001815181106121a5577f4e487b7100000000000000000000000000000000000000000000000000000000600052603260045260246000fd5b60200101907effffffffffffffffffffffffffffffffffffffffffffffffffffffffffffff1916908160001a905350600060018460026121e59190613e69565b6121ef9190613de2565b90505b60018111156122db577f3031323334353637383961626364656600000000000000000000000000000000600f861660108110612257577f4e487b7100000000000000000000000000000000000000000000000000000000600052603260045260246000fd5b1a60f81b828281518110612294577f4e487b7100000000000000000000000000000000000000000000000000000000600052603260045260246000fd5b60200101907effffffffffffffffffffffffffffffffffffffffffffffffffffffffffffff1916908160001a905350600485901c9450806122d490613fed565b90506121f2565b506000841461231f576040517f08c379a000000000000000000000000000000000000000000000000000000000815260040161231690613a86565b60405180910390fd5b8091505092915050565b600083838346306040516020016123449594939291906139ac565b6040516020818303038152906040528051906020012090509392505050565b600060028284186123749190613e38565b8284166123819190613de2565b905092915050565b6123938282612ae1565b61239b612c41565b7bffffffffffffffffffffffffffffffffffffffffffffffffffffffff166123c16107df565b1115612402576040517f08c379a00000000000000000000000000000000000000000000000000000000081526004016123f990613c26565b60405180910390fd5b6124106009612c6583612c7b565b50505050565b8173ffffffffffffffffffffffffffffffffffffffff168373ffffffffffffffffffffffffffffffffffffffff16141580156124525750600081115b1561260a57600073ffffffffffffffffffffffffffffffffffffffff168373ffffffffffffffffffffffffffffffffffffffff1614612530576000806124d9600860008773ffffffffffffffffffffffffffffffffffffffff1673ffffffffffffffffffffffffffffffffffffffff168152602001908152602001600020612f6585612c7b565b915091508473ffffffffffffffffffffffffffffffffffffffff167fdec2bacdd2f05b59de34da9b523dff8be42e5e38e818c82fdb0bae774387a7248383604051612525929190613d5c565b60405180910390a250505b600073ffffffffffffffffffffffffffffffffffffffff168273ffffffffffffffffffffffffffffffffffffffff1614612609576000806125b2600860008673ffffffffffffffffffffffffffffffffffffffff1673ffffffffffffffffffffffffffffffffffffffff168152602001908152602001600020612c6585612c7b565b915091508373ffffffffffffffffffffffffffffffffffffffff167fdec2bacdd2f05b59de34da9b523dff8be42e5e38e818c82fdb0bae774387a72483836040516125fe929190613d5c565b60405180910390a250505b5b505050565b60008282604051602001612624929190613844565b60405160208183030381529060405280519060200120905092915050565b6000807f7fffffffffffffffffffffffffffffff5d576e7357a4501ddfe92f46681b20a08360001c111561267d576000600391509150612746565b601b8560ff16141580156126955750601c8560ff1614155b156126a7576000600491509150612746565b6000600187878787604051600081526020016040526040516126cc94939291906139ff565b6020604051602081039080840390855afa1580156126ee573d6000803e3d6000fd5b505050602060405103519050600073ffffffffffffffffffffffffffffffffffffffff168173ffffffffffffffffffffffffffffffffffffffff16141561273d57600060019250925050612746565b80600092509250505b94509492505050565b60006004811115612789577f4e487b7100000000000000000000000000000000000000000000000000000000600052602160045260246000fd5b8160048111156127c2577f4e487b7100000000000000000000000000000000000000000000000000000000600052602160045260246000fd5b14156127cd57612a9d565b60016004811115612807577f4e487b7100000000000000000000000000000000000000000000000000000000600052602160045260246000fd5b816004811115612840577f4e487b7100000000000000000000000000000000000000000000000000000000600052602160045260246000fd5b1415612881576040517f08c379a000000000000000000000000000000000000000000000000000000000815260040161287890613a66565b60405180910390fd5b600260048111156128bb577f4e487b7100000000000000000000000000000000000000000000000000000000600052602160045260246000fd5b8160048111156128f4577f4e487b7100000000000000000000000000000000000000000000000000000000600052602160045260246000fd5b1415612935576040517f08c379a000000000000000000000000000000000000000000000000000000000815260040161292c90613b06565b60405180910390fd5b6003600481111561296f577f4e487b7100000000000000000000000000000000000000000000000000000000600052602160045260246000fd5b8160048111156129a8577f4e487b7100000000000000000000000000000000000000000000000000000000600052602160045260246000fd5b14156129e9576040517f08c379a00000000000000000000000000000000000000000000000000000000081526004016129e090613bc6565b60405180910390fd5b600480811115612a22577f4e487b7100000000000000000000000000000000000000000000000000000000600052602160045260246000fd5b816004811115612a5b577f4e487b7100000000000000000000000000000000000000000000000000000000600052602160045260246000fd5b1415612a9c576040517f08c379a0000000000000000000000000000000000000000000000000000000008152600401612a9390613be6565b60405180910390fd5b5b50565b6001816000016000828254019250508190555050565b612ac1838383612f7b565b612adc612acd84610a7b565b612ad684610a7b565b83612416565b505050565b600073ffffffffffffffffffffffffffffffffffffffff168273ffffffffffffffffffffffffffffffffffffffff161415612b51576040517f08c379a0000000000000000000000000000000000000000000000000000000008152600401612b4890613d06565b60405180910390fd5b612b5d6000838361201a565b8060026000828254612b6f9190613de2565b92505081905550806000808473ffffffffffffffffffffffffffffffffffffffff1673ffffffffffffffffffffffffffffffffffffffff1681526020019081526020016000206000828254612bc49190613de2565b925050819055508173ffffffffffffffffffffffffffffffffffffffff16600073ffffffffffffffffffffffffffffffffffffffff167fddf252ad1be2c89b69c2b068fc378daa952ba7f163c4a11628f55a4df523b3ef83604051612c299190613d41565b60405180910390a3612c3d6000838361201f565b5050565b60007bffffffffffffffffffffffffffffffffffffffffffffffffffffffff905090565b60008183612c739190613de2565b905092915050565b60008060008580549050905060008114612d0f5785600182612c9d9190613ec3565b81548110612cd4577f4e487b7100000000000000000000000000000000000000000000000000000000600052603260045260246000fd5b9060005260206000200160000160049054906101000a90047bffffffffffffffffffffffffffffffffffffffffffffffffffffffff16612d12565b60005b7bffffffffffffffffffffffffffffffffffffffffffffffffffffffff169250612d4083858763ffffffff16565b9150600081118015612db957504386600183612d5c9190613ec3565b81548110612d93577f4e487b7100000000000000000000000000000000000000000000000000000000600052603260045260246000fd5b9060005260206000200160000160009054906101000a900463ffffffff1663ffffffff16145b15612e6c57612dc782612f80565b86600183612dd59190613ec3565b81548110612e0c577f4e487b7100000000000000000000000000000000000000000000000000000000600052603260045260246000fd5b9060005260206000200160000160046101000a8154817bffffffffffffffffffffffffffffffffffffffffffffffffffffffff02191690837bffffffffffffffffffffffffffffffffffffffffffffffffffffffff160217905550612f5c565b856040518060400160405280612e8143611f16565b63ffffffff168152602001612e9585612f80565b7bffffffffffffffffffffffffffffffffffffffffffffffffffffffff168152509080600181540180825580915050600190039060005260206000200160009091909190915060008201518160000160006101000a81548163ffffffff021916908363ffffffff16021790555060208201518160000160046101000a8154817bffffffffffffffffffffffffffffffffffffffffffffffffffffffff02191690837bffffffffffffffffffffffffffffffffffffffffffffffffffffffff16021790555050505b50935093915050565b60008183612f739190613ec3565b905092915050565b505050565b60007bffffffffffffffffffffffffffffffffffffffffffffffffffffffff8016821115612fe3576040517f08c379a0000000000000000000000000000000000000000000000000000000008152600401612fda90613c46565b60405180910390fd5b819050919050565b6040518060400160405280600063ffffffff16815260200160007bffffffffffffffffffffffffffffffffffffffffffffffffffffffff1681525090565b600081359050613038816146ba565b92915050565b60008135905061304d816146d1565b92915050565b600081359050613062816146e8565b92915050565b600081359050613077816146ff565b92915050565b60008135905061308c81614716565b92915050565b6000813590506130a18161472d565b92915050565b6000602082840312156130b957600080fd5b60006130c784828501613029565b91505092915050565b600080604083850312156130e357600080fd5b60006130f185828601613029565b925050602061310285828601613029565b9150509250929050565b60008060006060848603121561312157600080fd5b600061312f86828701613029565b935050602061314086828701613029565b925050604061315186828701613068565b9150509250925092565b600080600080600080600060e0888a03121561317657600080fd5b60006131848a828b01613029565b97505060206131958a828b01613029565b96505060406131a68a828b01613068565b95505060606131b78a828b01613068565b94505060806131c88a828b01613092565b93505060a06131d98a828b0161303e565b92505060c06131ea8a828b0161303e565b91505092959891949750929550565b6000806040838503121561320c57600080fd5b600061321a85828601613029565b925050602061322b85828601613068565b9150509250929050565b60008060008060008060c0878903121561324e57600080fd5b600061325c89828a01613029565b965050602061326d89828a01613068565b955050604061327e89828a01613068565b945050606061328f89828a01613092565b93505060806132a089828a0161303e565b92505060a06132b189828a0161303e565b9150509295509295509295565b600080604083850312156132d157600080fd5b60006132df85828601613029565b92505060206132f08582860161307d565b9150509250929050565b60006020828403121561330c57600080fd5b600061331a8482850161303e565b91505092915050565b6000806040838503121561333657600080fd5b60006133448582860161303e565b925050602061335585828601613029565b9150509250929050565b60006020828403121561337157600080fd5b600061337f84828501613053565b91505092915050565b60006020828403121561339a57600080fd5b60006133a884828501613068565b91505092915050565b6133ba81613ef7565b82525050565b6133c981613f09565b82525050565b6133d881613f15565b82525050565b6133ef6133ea82613f15565b614049565b82525050565b600061340082613dbb565b61340a8185613dc6565b935061341a818560208601613fba565b613423816140e0565b840191505092915050565b600061343982613dbb565b6134438185613dd7565b9350613453818560208601613fba565b80840191505092915050565b600061346c601883613dc6565b9150613477826140f1565b602082019050919050565b600061348f602083613dc6565b915061349a8261411a565b602082019050919050565b60006134b2602383613dc6565b91506134bd82614143565b604082019050919050565b60006134d5601f83613dc6565b91506134e082614192565b602082019050919050565b60006134f8601d83613dc6565b9150613503826141bb565b602082019050919050565b600061351b601f83613dc6565b9150613526826141e4565b602082019050919050565b600061353e601983613dc6565b91506135498261420d565b602082019050919050565b6000613561602283613dc6565b915061356c82614236565b604082019050919050565b6000613584600283613dd7565b915061358f82614285565b600282019050919050565b60006135a7601d83613dc6565b91506135b2826142ae565b602082019050919050565b60006135ca601d83613dc6565b91506135d5826142d7565b602082019050919050565b60006135ed602683613dc6565b91506135f882614300565b604082019050919050565b6000613610602283613dc6565b915061361b8261434f565b604082019050919050565b6000613633602283613dc6565b915061363e8261439e565b604082019050919050565b6000613656601e83613dc6565b9150613661826143ed565b602082019050919050565b6000613679603083613dc6565b915061368482614416565b604082019050919050565b600061369c602783613dc6565b91506136a782614465565b604082019050919050565b60006136bf602583613dc6565b91506136ca826144b4565b604082019050919050565b60006136e2602683613dc6565b91506136ed82614503565b604082019050919050565b6000613705602483613dc6565b915061371082614552565b604082019050919050565b6000613728601783613dd7565b9150613733826145a1565b601782019050919050565b600061374b602583613dc6565b9150613756826145ca565b604082019050919050565b600061376e601183613dd7565b915061377982614619565b601182019050919050565b6000613791602f83613dc6565b915061379c82614642565b604082019050919050565b60006137b4601f83613dc6565b91506137bf82614691565b602082019050919050565b6040820160008201516137e06000850182613817565b5060208201516137f360208501826137f9565b50505050565b61380281613f6b565b82525050565b61381181613f93565b82525050565b61382081613f9d565b82525050565b61382f81613f9d565b82525050565b61383e81613fad565b82525050565b600061384f82613577565b915061385b82856133de565b60208201915061386b82846133de565b6020820191508190509392505050565b60006138868261371b565b9150613892828561342e565b915061389d82613761565b91506138a9828461342e565b91508190509392505050565b60006020820190506138ca60008301846133b1565b92915050565b60006020820190506138e560008301846133c0565b92915050565b600060208201905061390060008301846133cf565b92915050565b600060c08201905061391b60008301896133cf565b61392860208301886133b1565b61393560408301876133b1565b6139426060830186613808565b61394f6080830185613808565b61395c60a0830184613808565b979650505050505050565b600060808201905061397c60008301876133cf565b61398960208301866133b1565b6139966040830185613808565b6139a36060830184613808565b95945050505050565b600060a0820190506139c160008301886133cf565b6139ce60208301876133cf565b6139db60408301866133cf565b6139e86060830185613808565b6139f560808301846133b1565b9695505050505050565b6000608082019050613a1460008301876133cf565b613a216020830186613835565b613a2e60408301856133cf565b613a3b60608301846133cf565b95945050505050565b60006020820190508181036000830152613a5e81846133f5565b905092915050565b60006020820190508181036000830152613a7f8161345f565b9050919050565b60006020820190508181036000830152613a9f81613482565b9050919050565b60006020820190508181036000830152613abf816134a5565b9050919050565b60006020820190508181036000830152613adf816134c8565b9050919050565b60006020820190508181036000830152613aff816134eb565b9050919050565b60006020820190508181036000830152613b1f8161350e565b9050919050565b60006020820190508181036000830152613b3f81613531565b9050919050565b60006020820190508181036000830152613b5f81613554565b9050919050565b60006020820190508181036000830152613b7f8161359a565b9050919050565b60006020820190508181036000830152613b9f816135bd565b9050919050565b60006020820190508181036000830152613bbf816135e0565b9050919050565b60006020820190508181036000830152613bdf81613603565b9050919050565b60006020820190508181036000830152613bff81613626565b9050919050565b60006020820190508181036000830152613c1f81613649565b9050919050565b60006020820190508181036000830152613c3f8161366c565b9050919050565b60006020820190508181036000830152613c5f8161368f565b9050919050565b60006020820190508181036000830152613c7f816136b2565b9050919050565b60006020820190508181036000830152613c9f816136d5565b9050919050565b60006020820190508181036000830152613cbf816136f8565b9050919050565b60006020820190508181036000830152613cdf8161373e565b9050919050565b60006020820190508181036000830152613cff81613784565b9050919050565b60006020820190508181036000830152613d1f816137a7565b9050919050565b6000604082019050613d3b60008301846137ca565b92915050565b6000602082019050613d566000830184613808565b92915050565b6000604082019050613d716000830185613808565b613d7e6020830184613808565b9392505050565b6000602082019050613d9a6000830184613826565b92915050565b6000602082019050613db56000830184613835565b92915050565b600081519050919050565b600082825260208201905092915050565b600081905092915050565b6000613ded82613f93565b9150613df883613f93565b9250827fffffffffffffffffffffffffffffffffffffffffffffffffffffffffffffffff03821115613e2d57613e2c614053565b5b828201905092915050565b6000613e4382613f93565b9150613e4e83613f93565b925082613e5e57613e5d614082565b5b828204905092915050565b6000613e7482613f93565b9150613e7f83613f93565b9250817fffffffffffffffffffffffffffffffffffffffffffffffffffffffffffffffff0483118215151615613eb857613eb7614053565b5b828202905092915050565b6000613ece82613f93565b9150613ed983613f93565b925082821015613eec57613eeb614053565b5b828203905092915050565b6000613f0282613f4b565b9050919050565b60008115159050919050565b6000819050919050565b60007fffffffff0000000000000000000000000000000000000000000000000000000082169050919050565b600073ffffffffffffffffffffffffffffffffffffffff82169050919050565b60007bffffffffffffffffffffffffffffffffffffffffffffffffffffffff82169050919050565b6000819050919050565b600063ffffffff82169050919050565b600060ff82169050919050565b60005b83811015613fd8578082015181840152602081019050613fbd565b83811115613fe7576000848401525b50505050565b6000613ff882613f93565b9150600082141561400c5761400b614053565b5b600182039050919050565b6000600282049050600182168061402f57607f821691505b60208210811415614043576140426140b1565b5b50919050565b6000819050919050565b7f4e487b7100000000000000000000000000000000000000000000000000000000600052601160045260246000fd5b7f4e487b7100000000000000000000000000000000000000000000000000000000600052601260045260246000fd5b7f4e487b7100000000000000000000000000000000000000000000000000000000600052602260045260246000fd5b6000601f19601f8301169050919050565b7f45434453413a20696e76616c6964207369676e61747572650000000000000000600082015250565b7f537472696e67733a20686578206c656e67746820696e73756666696369656e74600082015250565b7f45524332303a207472616e7366657220746f20746865207a65726f206164647260008201527f6573730000000000000000000000000000000000000000000000000000000000602082015250565b7f4552433230566f7465733a20626c6f636b206e6f7420796574206d696e656400600082015250565b7f4552433230566f7465733a207369676e61747572652065787069726564000000600082015250565b7f45434453413a20696e76616c6964207369676e6174757265206c656e67746800600082015250565b7f4552433230566f7465733a20696e76616c6964206e6f6e636500000000000000600082015250565b7f45524332303a20617070726f766520746f20746865207a65726f20616464726560008201527f7373000000000000000000000000000000000000000000000000000000000000602082015250565b7f1901000000000000000000000000000000000000000000000000000000000000600082015250565b7f45524332303a20696e73756666696369656e7420616c6c6f77616e6365000000600082015250565b7f45524332305065726d69743a206578706972656420646561646c696e65000000600082015250565b7f45524332303a207472616e7366657220616d6f756e742065786365656473206260008201527f616c616e63650000000000000000000000000000000000000000000000000000602082015250565b7f45434453413a20696e76616c6964207369676e6174757265202773272076616c60008201527f7565000000000000000000000000000000000000000000000000000000000000602082015250565b7f45434453413a20696e76616c6964207369676e6174757265202776272076616c60008201527f7565000000000000000000000000000000000000000000000000000000000000602082015250565b7f45524332305065726d69743a20696e76616c6964207369676e61747572650000600082015250565b7f4552433230566f7465733a20746f74616c20737570706c79207269736b73206f60008201527f766572666c6f77696e6720766f74657300000000000000000000000000000000602082015250565b7f53616665436173743a2076616c756520646f65736e27742066697420696e203260008201527f3234206269747300000000000000000000000000000000000000000000000000602082015250565b7f45524332303a207472616e736665722066726f6d20746865207a65726f20616460008201527f6472657373000000000000000000000000000000000000000000000000000000602082015250565b7f53616665436173743a2076616c756520646f65736e27742066697420696e203360008201527f3220626974730000000000000000000000000000000000000000000000000000602082015250565b7f45524332303a20617070726f76652066726f6d20746865207a65726f2061646460008201527f7265737300000000000000000000000000000000000000000000000000000000602082015250565b7f416363657373436f6e74726f6c3a206163636f756e7420000000000000000000600082015250565b7f45524332303a2064656372656173656420616c6c6f77616e63652062656c6f7760008201527f207a65726f000000000000000000000000000000000000000000000000000000602082015250565b7f206973206d697373696e6720726f6c6520000000000000000000000000000000600082015250565b7f416363657373436f6e74726f6c3a2063616e206f6e6c792072656e6f756e636560008201527f20726f6c657320666f722073656c660000000000000000000000000000000000602082015250565b7f45524332303a206d696e7420746f20746865207a65726f206164647265737300600082015250565b6146c381613ef7565b81146146ce57600080fd5b50565b6146da81613f15565b81146146e557600080fd5b50565b6146f181613f1f565b81146146fc57600080fd5b50565b61470881613f93565b811461471357600080fd5b50565b61471f81613f9d565b811461472a57600080fd5b50565b61473681613fad565b811461474157600080fd5b5056fea2646970667358221220c96f62c93eef4dfa99f7263bb202c2f3c14f3e5302399b80a4c875697f12cd8164736f6c63430008040033",
  "linkReferences": {},
  "deployedLinkReferences": {}
}